:020000040000FA
:100000006802001061010000650100006701000046
:10001000690100006B0100006D010000000000009C
:100020000000000000000000000000006F01000060
:100030007101000000000000730100007501000064
:1000400077010000770100007701000077010000D0
:1000500077010000770100007701000077010000C0
:1000600077010000770100007701000077010000B0
:1000700077010000770100007701000077010000A0
:100080007701000077010000770100007701000090
:100090007701000077010000770100007701000080
:1000A0007701000077010000770100007701000070
:1000B0007701000077010000770100007701000060
:1000C0007701000000F002F800F03CF80AA090E888
:1000D000000C82448344AAF10107DA4501D100F003
:1000E00031F8AFF2090EBAE80F0013F0010F18BF94
:1000F000FB1A43F001031847180100003801000003
:10010000103A24BF78C878C1FAD8520724BF30C843
:1001100030C144BF04680C60704700000023002415
:1001200000250026103A28BF78C1FBD8520728BF07
:1001300030C148BF0B6070471FB5AFF300801FBDD3
:1001400010B510BD00F029F81146FFF7F5FF00F0DB
:1001500024FA00F047F8FFF7F3FF00F04DF8000035
:1001600008480047FEE7FEE7FEE7FEE7FEE7FEE79A
:10017000FEE7FEE7FEE7FEE703480449024A044BB8
:1001800070470000C5000000680000106802001001
:1001900068000010704770477047754600F028F8F7
:1001A000AE4605006946534620F00700854618B064
:1001B00020B5FFF7E1FFBDE820404FF000064FF00B
:1001C00000074FF000084FF0000B21F00701AC468C
:1001D000ACE8C009ACE8C009ACE8C009ACE8C009AB
:1001E0008D4670470446AFF300802046FFF7B3FF0B
:1001F000004870470400001003494FF01800ABBEE0
:10020000704700000900000026000200704700004F
:10021000E0060000000000100400000000010000E3
:10022000E406000004000010640200001C0100004D
:1002300000000000000000000000000000000000BE
:1002400000000000000000000000000000000000AE
:10025000000000000000000000000000000000009E
:10026000000000000000000000000000000000008E
:10027000000000000000000000000000000000007E
:10028000000000000000000000000000000000006E
:10029000000000000000000000000000000000005E
:1002A000000000000000000000000000000000004E
:1002B000000000000000000000000000000000003E
:1002C000000000000000000000000000000000002E
:1002D000000000000000000000000000000000001E
:1002E000000000000000000000000000000000000E
:1002F000000000000000000000000000FFFFFFFF02
:1003000000202021854A116000BF8449096811F04E
:10031000400FFAD00321814A9C3A11600021804AA3
:10032000C2F8A8117D4A0C32116001217B4A943A2F
:1003300011600B217A4A843211600121121F116071
:10034000AA21774A8C3211605521754AC2F88C1067
:10035000724994390968022907D000BF7049883171
:10036000096811F0806FF9D004E0002000E0401C23
:100370006428FCD903216A4A80321160AA21684AA4
:10038000C2F88C105521664A8C3211602321644AD0
:10039000A43211600121121F1160AA21604AAC32FF
:1003A00011605521116000BF5D49A831096811F441
:1003B000806FF9D003215A4AA0321160AA21584A0D
:1003C000C2F8AC105521564AAC3211605549544A16
:1003D000C43211600021514A2832116043F23A01BF
:1003E0004F4A116070474E4888300068C0F3016082
:1003F000032860D149489438006810F0030006D003
:10040000012820D0022839D0032853D100E000BFB2
:10041000434888300068C0F30E00401C410040484B
:10042000D0F88800C0F30740401CB1FBF0F13E4813
:1004300041433A489C380068C0B2401CB1FBF0F020
:100440003A49086036E0364888300068C0F30E004C
:10045000401C41003248D0F88800C0F30740401CDF
:10046000B1FBF0F1324841432C489C380068C0B2DF
:10047000401CB1FBF0F02D4908601BE02848883093
:100480000068C0F30E00401C41002548D0F88800E9
:10049000C0F30740401CB1FBF0F14FF4FA40414378
:1004A0001E489C380068C0B2401CB1FBF0F01F49E8
:1004B000086000BF30E019489438006810F003006D
:1004C00006D0012810D0022819D0032823D100E03B
:1004D00000BF12489C380068C0B2401C1249B1FBF2
:1004E000F0F01249086016E00C489C380068C0B271
:1004F000401C0F49B1FBF0F00C4908600BE00748C5
:100500009C380068C0B2401C4FF4FA41B1FBF0F0D7
:100510000649086000BF00BF70470000A0C10F403F
:1005200000C00F40DE87280400093D0000000010D5
:10053000001BB70000210AE0425C5F4B1A7000BF4D
:100540005D4A127D02F02002202AF9D1491C425C4A
:10055000002AF1D170474FF07060584948628320FB
:1005600057490873002008717520087010205449FD
:100570002831087003205249087350204F49086001
:1005800083204D49087300200871752008701020E1
:1005900081F8280003200873704770B5AEB049A0F9
:1005A0000068059002A848A12CC92CC049A103C924
:1005B000CDE90001FFF7A4FE4FF0FF304749086086
:1005C000FFF7C9FF77E00D203B49087000BF3A48AC
:1005D000007D00F020002028F9D100BF00BF38487E
:1005E000007D00F001000128F9D135480578242D5F
:1005F000F4D100240BE000BF3148007D00F0010081
:100600000128F9D12E48007815A90855641C601EF0
:1006100015A9085C0A28EED19DF8560052284AD147
:1006200015A8FFF787FF0026062405E015A8005D42
:1006300010A98855761C641C102CF7D30D201E4978
:10064000087000BF1C48007D00F020002028F9D170
:1006500010A8FFF76FFF0026132405E015A8005D22
:100660000BA98855761C641C1E2CF7D30D2012494B
:10067000087000BF1048007D00F020002028F9D14C
:100680000BA8FFF757FF00261F2405E015A8005D03
:1006900006A98855761C641C292CF7D30D20064921
:1006A000087000BF0448007D00F020002028F9D128
:1006B00006A8FFF73FFF86E700C0004000C00240E9
:1006C00000C009400A000000696E76616C69640A26
:1006D000000000004750524D43000000C4C00F40CE
:0406E00000093D00D0
:040000050000016195
:00000001FF
