:020000040000FA
:100000006802001061010000650100006701000046
:10001000690100006B0100006D010000000000009C
:100020000000000000000000000000006F01000060
:100030007101000000000000730100007501000064
:1000400077010000770100007701000077010000D0
:1000500077010000770100007701000077010000C0
:1000600077010000770100007701000077010000B0
:1000700077010000770100007701000077010000A0
:100080007701000077010000770100007701000090
:100090007701000077010000770100007701000080
:1000A0007701000077010000770100007701000070
:1000B0007701000077010000770100007701000060
:1000C0007701000000F002F800F03CF80AA090E888
:1000D000000C82448344AAF10107DA4501D100F003
:1000E00031F8AFF2090EBAE80F0013F0010F18BF94
:1000F000FB1A43F00103184758040000780400007D
:10010000103A24BF78C878C1FAD8520724BF30C843
:1001100030C144BF04680C60704700000023002415
:1001200000250026103A28BF78C1FBD8520728BF07
:1001300030C148BF0B6070471FB5AFF300801FBDD3
:1001400010B510BD00F0ADF81146FFF7F5FF00F057
:1001500054F800F0CBF8FFF7F3FF00F0EFF90000E0
:1001600008480047FEE7FEE7FEE7FEE7FEE7FEE79A
:10017000FEE7FEE7FEE7FEE703480449024A044BB8
:1001800070470000C5000000680000106802001001
:100190006800001000210AE0425C364B1A7000BF74
:1001A000344A127D02F02002202AF9D1491C425C17
:1001B000002AF1D170474FF070602F4948628320C8
:1001C0002E490873002008717520087010202B49F3
:1001D00028310870032029490873502026490860F7
:1001E00083202449087300200871752008701020AE
:1001F00081F8280003200873704730B59FB020A015
:100200000068059002A81FA11CC91CC020A103C939
:10021000CDE9000100F074F84FF0FF301E4908608E
:10022000FFF7C9FF25E000BF00BF1448007D00F0C4
:1002300001000128F9D111480478242CF4D10025BB
:100240000BE000BF0D48007D00F001000128F9D14E
:100250000A48007806A948556D1C681E06A9085C66
:100260000A28EED19DF81A00522802D106A8FFF7FD
:1002700091FFD8E700C0004000C0024000C0094024
:100280000A000000696E76616C69640A0000000073
:100290004750524D43000000C4C00F4070477047A4
:1002A0007047754600F046F9AE460500694653466C
:1002B00020F00700854618B020B5FFF75DFFBDE8C8
:1002C00020404FF000064FF000074FF000084FF0BD
:1002D000000B21F00701AC46ACE8C009ACE8C0094E
:1002E000ACE8C009ACE8C0098D4670470446AFF3DE
:1002F00000802046FFF72FFF70470000FFFFFFFF41
:1003000000202021854A116000BF8449096811F04E
:10031000400FFAD00321814A9C3A11600021804AA3
:10032000C2F8A8117D4A0C32116001217B4A943A2F
:1003300011600B217A4A843211600121121F116071
:10034000AA21774A8C3211605521754AC2F88C1067
:10035000724994390968022907D000BF7049883171
:10036000096811F0806FF9D004E0002000E0401C23
:100370006428FCD903216A4A80321160AA21684AA4
:10038000C2F88C105521664A8C3211602321644AD0
:10039000A43211600121121F1160AA21604AAC32FF
:1003A00011605521116000BF5D49A831096811F441
:1003B000806FF9D003215A4AA0321160AA21584A0D
:1003C000C2F8AC105521564AAC3211605549544A16
:1003D000C43211600021514A2832116043F23A01BF
:1003E0004F4A116070474E4888300068C0F3016082
:1003F000032860D149489438006810F0030006D003
:10040000012820D0022839D0032853D100E000BFB2
:10041000434888300068C0F30E00401C410040484B
:10042000D0F88800C0F30740401CB1FBF0F13E4813
:1004300041433A489C380068C0B2401CB1FBF0F020
:100440003A49086036E0364888300068C0F30E004C
:10045000401C41003248D0F88800C0F30740401CDF
:10046000B1FBF0F1324841432C489C380068C0B2DF
:10047000401CB1FBF0F02D4908601BE02848883093
:100480000068C0F30E00401C41002548D0F88800E9
:10049000C0F30740401CB1FBF0F14FF4FA40414378
:1004A0001E489C380068C0B2401CB1FBF0F01F49E8
:1004B000086000BF30E019489438006810F003006D
:1004C00006D0012810D0022819D0032823D100E03B
:1004D00000BF12489C380068C0B2401C1249B1FBF2
:1004E000F0F01249086016E00C489C380068C0B271
:1004F000401C0F49B1FBF0F00C4908600BE00748C5
:100500009C380068C0B2401C4FF4FA41B1FBF0F0D7
:100510000649086000BF00BF70470000A0C10F403F
:1005200000C00F40DE87280400093D0000000010D5
:10053000001BB700004870470400001003494FF04B
:100540001800ABBE70470000B1FDFFFF260002009F
:100550007005000000000010040000000001000011
:100560007405000004000010640200001C0100007B
:0405700000093D0041
:040000050000016195
:00000001FF
