:020000040000FA
:10000000300300106101000065010000670100007D
:10001000690100006B0100006D010000000000009C
:100020000000000000000000000000006F01000060
:100030007101000000000000730100007501000064
:1000400077010000770100007701000077010000D0
:1000500077010000770100007701000077010000C0
:1000600077010000770100007701000077010000B0
:1000700077010000770100007701000077010000A0
:100080007701000077010000770100007701000090
:100090007701000077010000770100007701000080
:1000A0007701000077010000770100007701000070
:1000B0007701000077010000770100007701000060
:1000C0007701000000F002F800F03CF80AA090E888
:1000D000000C82448344AAF10107DA4501D100F003
:1000E00031F8AFF2090EBAE80F0013F0010F18BF94
:1000F000FB1A43F001031847180100003801000003
:10010000103A24BF78C878C1FAD8520724BF30C843
:1001100030C144BF04680C60704700000023002415
:1001200000250026103A28BF78C1FBD8520728BF07
:1001300030C148BF0B6070471FB5AFF300801FBDD3
:1001400010B510BD00F029F81146FFF7F5FF00F0DB
:1001500043FB00F047F8FFF7F3FF00F04DF8000015
:1001600008480047FEE7FEE7FEE7FEE7FEE7FEE79A
:10017000FEE7FEE7FEE7FEE703480449024A044BB8
:1001800070470000C500000030010010300300106F
:1001900030010010704770477047754600F028F82E
:1001A000AE4605006946534620F00700854618B064
:1001B00020B5FFF7E1FFBDE820404FF000064FF00B
:1001C00000074FF000084FF0000B21F00701AC468C
:1001D000ACE8C009ACE8C009ACE8C009ACE8C009AB
:1001E0008D4670470446AFF300802046FFF7B3FF0B
:1001F00000487047D000001003494FF01800ABBE14
:10020000704700000900000026000200704700004F
:100210005C08000000000010D00000000001000099
:100220002C090000D0000010600200001C0100003A
:1002300000000000000000000000000000000000BE
:1002400000000000000000000000000000000000AE
:10025000000000000000000000000000000000009E
:10026000000000000000000000000000000000008E
:10027000000000000000000000000000000000007E
:10028000000000000000000000000000000000006E
:10029000000000000000000000000000000000005E
:1002A000000000000000000000000000000000004E
:1002B000000000000000000000000000000000003E
:1002C000000000000000000000000000000000002E
:1002D000000000000000000000000000000000001E
:1002E000000000000000000000000000000000000E
:1002F000000000000000000000000000FFFFFFFF02
:1003000000202021854A116000BF8449096811F04E
:10031000400FFAD00321814A9C3A11600021804AA3
:10032000C2F8A8117D4A0C32116001217B4A943A2F
:1003300011600B217A4A843211600121121F116071
:10034000AA21774A8C3211605521754AC2F88C1067
:10035000724994390968022907D000BF7049883171
:10036000096811F0806FF9D004E0002000E0401C23
:100370006428FCD903216A4A80321160AA21684AA4
:10038000C2F88C105521664A8C3211602321644AD0
:10039000A43211600121121F1160AA21604AAC32FF
:1003A00011605521116000BF5D49A831096811F441
:1003B000806FF9D003215A4AA0321160AA21584A0D
:1003C000C2F8AC105521564AAC3211605549544A16
:1003D000C43211600021514A2832116043F23A01BF
:1003E0004F4A116070474E4888300068C0F3016082
:1003F000032860D149489438006810F0030006D003
:10040000012820D0022839D0032853D100E000BFB2
:10041000434888300068C0F30E00401C410040484B
:10042000D0F88800C0F30740401CB1FBF0F13E4813
:1004300041433A489C380068C0B2401CB1FBF0F020
:100440003A49086036E0364888300068C0F30E004C
:10045000401C41003248D0F88800C0F30740401CDF
:10046000B1FBF0F1324841432C489C380068C0B2DF
:10047000401CB1FBF0F02D4908601BE02848883093
:100480000068C0F30E00401C41002548D0F88800E9
:10049000C0F30740401CB1FBF0F14FF4FA40414378
:1004A0001E489C380068C0B2401CB1FBF0F01F49E8
:1004B000086000BF30E019489438006810F003006D
:1004C00006D0012810D0022819D0032823D100E03B
:1004D00000BF12489C380068C0B2401C1249B1FBF2
:1004E000F0F01249086016E00C489C380068C0B271
:1004F000401C0F49B1FBF0F00C4908600BE00748C5
:100500009C380068C0B2401C4FF4FA41B1FBF0F0D7
:100510000649086000BF00BF70470000A0C10F403F
:1005200000C00F40DE87280400093D0000000010D5
:10053000001BB700002100BF00E0491C8142FCD332
:10054000704700B5002300BF0DE01846591CCBB220
:10055000B349085CB349087000BFB248007D00F0A1
:1005600020002028F9D1AE48C05C0028EDD14FF022
:10057000A060FFF7DFFF00230DE01846591CCBB247
:10058000A949085CA749087000BFA648007D00F093
:1005900020002028F9D1A448C05C0028EDD14FF0FC
:1005A000A060FFF7C7FF00230DE01846591CCBB22F
:1005B0009E49085C9B49087000BF9A48007D00F086
:1005C00020002028F9D19948C05C0028EDD14FF0D7
:1005D000A060FFF7AFFF00230DE01846591CCBB217
:1005E0009349085C8F49087000BF8E48007D00F079
:1005F00020002028F9D18E48C05C0028EDD14FF0B2
:10060000A060FFF797FF00230DE01846591CCBB2FE
:100610008849085C8349087000BF8248007D00F06B
:1006200020002028F9D18348C05C0028EDD14FF08C
:10063000A060FFF77FFF00230DE01846591CCBB2E6
:100640007D49085C7749087000BF7648007D00F05E
:1006500020002028F9D17848C05C0028EDD14FF067
:10066000A060FFF767FF00230DE01846591CCBB2CE
:100670007249085C6B49087000BF6A48007D00F051
:1006800020002028F9D16D48C05C0028EDD14FF042
:10069000A060FFF74FFF00230DE01846591CCBB2B6
:1006A0006749085C5F49087000BF5E48007D00F044
:1006B00020002028F9D16248C05C0028EDD14FF01D
:1006C000A060FFF737FF00230DE01846591CCBB29E
:1006D0005C49085C5349087000BF5248007D00F037
:1006E00020002028F9D15748C05C0028EDD14FF4F4
:1006F000A000FFF71FFF00230DE01846591CCBB2E6
:100700005149085C4749087000BF4648007D00F029
:1007100020002028F9D14C48C05C0028EDD11A20D7
:100720004049087000BF3F48007D00F020002028AD
:10073000F9D14FF0A060FFF7FDFE4FF0A060FFF78A
:10074000F9FE4FF0A060FFF7F5FE00BD3F480068DE
:1007500040F000703D49C439C1F8C4000846D0F8E3
:10076000AC01C1F8AC013A48406A40F070603849C9
:10077000486283202B490873752008700020087197
:1007800010202849283108700320264908730720C3
:10079000087270472D4800682C49C439C1F8C4005C
:1007A0000846D0F8A801C1F8A8012948006840F01F
:1007B0005000274908608320264908737520087077
:1007C0000020087110202349283108700320214996
:1007D000087307200872704710B5FFF791FDFFF707
:1007E000D9FFFFF7B3FF01E0FFF7ABFEFCE71848C6
:1007F000006840F08040164908600846406840F0B4
:100800000100486083201449087375200870002097
:10081000087110208862032008730720087270474F
:10082000B200001000C009400400001009000010D0
:100830001500001027000010320000103D000010CD
:100840004C0000107700001084000010C4C00F405E
:1008500000C0024000C000400000014000093D000F
:1008600041540D0A0041542B43474154543F0D0A53
:100870000041542B435354543D22434D4E45542282
:100880000D0A0041542B43494943520D0A0041547B
:100890002B43494653520D0A0041542B43495053B0
:1008A00054415455530D0A0041542B43495053545D
:1008B0004152543D22544350222C223138342E319F
:1008C00030362E3135332E313439222C2238302235
:1008D0000D0A0041542B43495053454E440D0A0024
:1008E000474554202F7570646174653F6B65793D91
:1008F00057315857543953353734573237514C33B1
:10090000266669656C64313D3132330D0A0041540D
:100910002B434950534855540D0A0041542B434929
:0C09200050434C4F53450D0A00000000EE
:040000050000016195
:00000001FF
