:020000040000FA
:100000005803001061010000650100006701000055
:10001000690100006B0100006D010000000000009C
:100020000000000000000000000000006F01000060
:100030007101000000000000730100007501000064
:1000400077010000770100007701000077010000D0
:1000500077010000770100007701000077010000C0
:1000600077010000770100007701000077010000B0
:1000700077010000770100007701000077010000A0
:100080007701000077010000770100007701000090
:100090007701000077010000770100007701000080
:1000A0007701000077010000770100007701000070
:1000B0007701000077010000770100007701000060
:1000C0007701000000F002F800F03CF80AA090E888
:1000D000000C82448344AAF10107DA4501D100F003
:1000E00031F8AFF2090EBAE80F0013F0010F18BF94
:1000F000FB1A43F0010318477C0100009C0100003B
:10010000103A24BF78C878C1FAD8520724BF30C843
:1001100030C144BF04680C60704700000023002415
:1001200000250026103A28BF78C1FBD8520728BF07
:1001300030C148BF0B6070471FB5AFF300801FBDD3
:1001400010B510BD00F05BF81146FFF7F5FF00F0A9
:100150007CFB00F079F8FFF7F3FF00F07FF8000078
:1001600008480047FEE7FEE7FEE7FEE7FEE7FEE79A
:10017000FEE7FEE7FEE7FEE703480449024A044BB8
:1001800070470000C500000058010010580300101F
:100190005801001010B5203AC0F00B80B1E818509B
:1001A000203AA0E81850B1E81850A0E81850BFF461
:1001B000F5AF5FEA027C24BFB1E81850A0E8185000
:1001C00044BF18C918C0BDE810405FEA827C24BF54
:1001D00051F8043B40F8043B08BF7047D20728BFE2
:1001E00031F8023B48BF11F8012B28BF20F8023B31
:1001F00048BF00F8012B704770477047704775463D
:1002000000F028F8AE4605006946534620F0070086
:10021000854618B020B5FFF7AFFFBDE820404FF08E
:1002200000064FF000074FF000084FF0000B21F0E0
:100230000701AC46ACE8C009ACE8C009ACE8C009AD
:10024000ACE8C0098D4670470446AFF300802046F5
:10025000FFF781FF00487047F400001003494FF09A
:100260001800ABBE70470000090000002600020025
:1002700070470000080A000000000010CC000000D9
:1002800000010000D40A0000CC0000108C02000025
:100290001C01000000000000000000000000000041
:1002A000000000000000000000000000000000004E
:1002B000000000000000000000000000000000003E
:1002C000000000000000000000000000000000002E
:1002D000000000000000000000000000000000001E
:1002E000000000000000000000000000000000000E
:1002F000000000000000000000000000FFFFFFFF02
:1003000000202021854A116000BF8449096811F04E
:10031000400FFAD00321814A9C3A11600021804AA3
:10032000C2F8A8117D4A0C32116001217B4A943A2F
:1003300011600B217A4A843211600121121F116071
:10034000AA21774A8C3211605521754AC2F88C1067
:10035000724994390968022907D000BF7049883171
:10036000096811F0806FF9D004E0002000E0401C23
:100370006428FCD903216A4A80321160AA21684AA4
:10038000C2F88C105521664A8C3211602321644AD0
:10039000A43211600121121F1160AA21604AAC32FF
:1003A00011605521116000BF5D49A831096811F441
:1003B000806FF9D003215A4AA0321160AA21584A0D
:1003C000C2F8AC105521564AAC3211605549544A16
:1003D000C43211600021514A2832116043F23A01BF
:1003E0004F4A116070474E4888300068C0F3016082
:1003F000032860D149489438006810F0030006D003
:10040000012820D0022839D0032853D100E000BFB2
:10041000434888300068C0F30E00401C410040484B
:10042000D0F88800C0F30740401CB1FBF0F13E4813
:1004300041433A489C380068C0B2401CB1FBF0F020
:100440003A49086036E0364888300068C0F30E004C
:10045000401C41003248D0F88800C0F30740401CDF
:10046000B1FBF0F1324841432C489C380068C0B2DF
:10047000401CB1FBF0F02D4908601BE02848883093
:100480000068C0F30E00401C41002548D0F88800E9
:10049000C0F30740401CB1FBF0F14FF4FA40414378
:1004A0001E489C380068C0B2401CB1FBF0F01F49E8
:1004B000086000BF30E019489438006810F003006D
:1004C00006D0012810D0022819D0032823D100E03B
:1004D00000BF12489C380068C0B2401C1249B1FBF2
:1004E000F0F01249086016E00C489C380068C0B271
:1004F000401C0F49B1FBF0F00C4908600BE00748C5
:100500009C380068C0B2401C4FF4FA41B1FBF0F0D7
:100510000649086000BF00BF70470000A0C10F403F
:1005200000C00F40DE87280400093D0000000010D5
:10053000001BB700002100E0491C8142FCD370473A
:1005400010B5002300BF0DE01846591CCBB2FD4981
:10055000085CFD49087000BFFB48007D00F02000EA
:100560002028F9D1F748C05C0028EDD14FF0A060F9
:10057000FFF7E0FF00230DE01846591CCBB2F3490A
:10058000085CF149087000BFEF48007D00F02000D2
:100590002028F9D1ED48C05C0028EDD14FF0A060D3
:1005A000FFF7C8FF00230DE01846591CCBB2E849FD
:1005B000085CE549087000BFE348007D00F02000BA
:1005C0002028F9D1E248C05C0028EDD14FF0A060AE
:1005D000FFF7B0FF00230DE01846591CCBB2DD49F0
:1005E000085CD949087000BFD748007D00F02000A2
:1005F0002028F9D1D748C05C0028EDD14FF0A06089
:10060000FFF798FF00230DE01846591CCBB2D249E2
:10061000085CCD49087000BFCB48007D00F0200089
:100620002028F9D1CC48C05C0028EDD14FF0A06063
:10063000FFF780FF00230DE01846591CCBB2C749D5
:10064000085CC149087000BFBF48007D00F0200071
:100650002028F9D1C148C05C0028EDD14FF0A0603E
:10066000FFF768FF00230DE01846591CCBB2BC49C8
:10067000085CB549087000BFB348007D00F0200059
:100680002028F9D1B648C05C0028EDD14FF0A06019
:10069000FFF750FF00230DE01846591CCBB2B149BB
:1006A000085CA949087000BFA748007D00F0200041
:1006B0002028F9D1AB48C05C0028EDD14FF0A060F4
:1006C000FFF738FF00230DE01846591CCBB2A649AE
:1006D000085C9D49087000BF9B48007D00F0200029
:1006E0002028F9D1A048C05C0028EDD14FF4A0002B
:1006F000FFF720FF00230DE01846591CCBB29B49A1
:10070000085C9149087000BF8F48007D00F0200010
:100710002028F9D19548C05C0028EDD103240CE0D5
:10072000934850F824008849087000BF8648007D2F
:1007300000F020002028F9D1641E002CF0DA0023FC
:100740000DE01846591CCBB28A49085C7E490870F6
:1007500000BF7D48007D00F020002028F9D18548A9
:10076000C05C0028EDD11A207749087000BF764898
:10077000007D00F020002028F9D14FF0A060FFF7A5
:10078000D9FE4FF0A060FFF7D5FE4FF0A060FFF755
:10079000D1FE10BD00B503467748037004217648AA
:1007A000343841764FF4A020FFF7C4FE042172488C
:1007B000343841774FF4A020FFF7BCFE00BD6F48EE
:1007C000006840F000706D49C439C1F8C4000846A3
:1007D000D0F8AC01C1F8AC016948406A40F07060E3
:1007E00067494862832058490873752008700020C3
:1007F00008711020544928310870032052490873A9
:100800000720087270475D4800685C49C439C1F828
:10081000C4000846D0F8A801C1F8A80158480068EB
:1008200040F05000564908608320564908737520EF
:1008300008700020087110205249283108700320E8
:10084000504908730720087270472DE9F04788B0B7
:1008500014224DA103A8FFF79DFC50A103C9CDE9C7
:100860000101FFF74DFD49F2080044490860F021FD
:100870004148543841740F203F4954394870F82199
:100880003D483438417407203B49543981F82100F0
:1008900000203949091F0870FF20374914390870B2
:1008A00080073749C860FFF7AEFFFFF788FF3D4874
:1008B0003D490860022130483438417701214177B1
:1008C000002404E001A9085DFFF764FF641C052C07
:1008D000F8D30121284834384176002404E003A9E4
:1008E000085DFFF757FF641C03A8005D0028F6D1E0
:1008F0004FF4A040FFF71EFE81E001211E4834386E
:1009000041770120FFF746FFC020FFF743FF012199
:1009100019483438417600BF2348006B00F02000AE
:100920002028F9D12048406AC0F30B15B5F5006FB7
:100930003CD301211048543841760803FFF7FAFDF3
:100940003AE00000B000001000C0094004000010B0
:1009500009000010150000102700001032000010E0
:100960003D0000104C0000107700001084000010C3
:10097000CC000010AD00001054C00920C4C00F40CE
:1009800000C0024000C000406469676974616C2067
:1009900076616C756520697320000000380E0601D1
:1009A0008000000020032100004003400121144882
:1009B00041770803FFF7BEFD2E4600270DE00A2011
:1009C000B6FBF0F100FB1168B6FBF0F94E4608F1FA
:1009D00030000C4941F827007F1C042FEFD34FF063
:1009E000030A07E0074951F82A10C8B2FFF7D2FE00
:1009F000AAF1010ABAF1000FF4DAFFF7A1FD7CE7D2
:100A000000C00920CC00001000093D0041540D0A2F
:100A10000041542B43474154543F0D0A0041542B8D
:100A2000435354543D22434D4E4554220D0A004138
:100A3000542B43494943520D0A0041542B43494624
:100A400053520D0A0041542B4349505354415455BD
:100A5000530D0A0041542B43495053544152543DC5
:100A600022544350222C223138342E3130362E314C
:100A700035332E313439222C223830220D0A0041F0
:100A8000542B43495053454E440D0A0047455420CA
:100A90002F7570646174653F6B65793D58313049DD
:100AA000393357464B3349324648463526666965E1
:100AB0006C64313D000D0A0041542B4349505348AA
:100AC00055540D0A0041542B434950434C4F534554
:040AD0000D0A00000B
:040000050000016195
:00000001FF
