:020000040000FA
:10000000800200106101000065010000670100002E
:10001000690100006B0100006D010000000000009C
:100020000000000000000000000000006F01000060
:100030007101000000000000730100007501000064
:1000400077010000770100007701000077010000D0
:1000500077010000770100007701000077010000C0
:1000600077010000770100007701000077010000B0
:1000700077010000770100007701000077010000A0
:100080007701000077010000770100007701000090
:100090007701000077010000770100007701000080
:1000A0007701000077010000770100007701000070
:1000B0007701000077010000770100007701000060
:1000C0007701000000F002F800F03CF80AA090E888
:1000D000000C82448344AAF10107DA4501D100F003
:1000E00031F8AFF2090EBAE80F0013F0010F18BF94
:1000F000FB1A43F001031847180100003801000003
:10010000103A24BF78C878C1FAD8520724BF30C843
:1001100030C144BF04680C60704700000023002415
:1001200000250026103A28BF78C1FBD8520728BF07
:1001300030C148BF0B6070471FB5AFF300801FBDD3
:1001400010B510BD00F029F81146FFF7F5FF00F0DB
:10015000E2FA00F047F8FFF7F3FF00F04DF8000077
:1001600008480047FEE7FEE7FEE7FEE7FEE7FEE79A
:10017000FEE7FEE7FEE7FEE703480449024A044BB8
:1001800070470000C50000008000001080020010D1
:1001900080000010704770477047754600F028F8DF
:1001A000AE4605006946534620F00700854618B064
:1001B00020B5FFF7E1FFBDE820404FF000064FF00B
:1001C00000074FF000084FF0000B21F00701AC468C
:1001D000ACE8C009ACE8C009ACE8C009ACE8C009AB
:1001E0008D4670470446AFF300802046FFF7B3FF0B
:1001F000004870471C00001003494FF01800ABBEC8
:10020000704700000900000026000200704700004F
:10021000AC080000000000101C00000000010000FD
:10022000C80800001C000010640200001C0100004F
:1002300000000000000000000000000000000000BE
:1002400000000000000000000000000000000000AE
:10025000000000000000000000000000000000009E
:10026000000000000000000000000000000000008E
:10027000000000000000000000000000000000007E
:10028000000000000000000000000000000000006E
:10029000000000000000000000000000000000005E
:1002A000000000000000000000000000000000004E
:1002B000000000000000000000000000000000003E
:1002C000000000000000000000000000000000002E
:1002D000000000000000000000000000000000001E
:1002E000000000000000000000000000000000000E
:1002F000000000000000000000000000FFFFFFFF02
:1003000000202021854A116000BF8449096811F04E
:10031000400FFAD00321814A9C3A11600021804AA3
:10032000C2F8A8117D4A0C32116001217B4A943A2F
:1003300011600B217A4A843211600121121F116071
:10034000AA21774A8C3211605521754AC2F88C1067
:10035000724994390968022907D000BF7049883171
:10036000096811F0806FF9D004E0002000E0401C23
:100370006428FCD903216A4A80321160AA21684AA4
:10038000C2F88C105521664A8C3211602321644AD0
:10039000A43211600121121F1160AA21604AAC32FF
:1003A00011605521116000BF5D49A831096811F441
:1003B000806FF9D003215A4AA0321160AA21584A0D
:1003C000C2F8AC105521564AAC3211605549544A16
:1003D000C43211600021514A2832116043F23A01BF
:1003E0004F4A116070474E4888300068C0F3016082
:1003F000032860D149489438006810F0030006D003
:10040000012820D0022839D0032853D100E000BFB2
:10041000434888300068C0F30E00401C410040484B
:10042000D0F88800C0F30740401CB1FBF0F13E4813
:1004300041433A489C380068C0B2401CB1FBF0F020
:100440003A49086036E0364888300068C0F30E004C
:10045000401C41003248D0F88800C0F30740401CDF
:10046000B1FBF0F1324841432C489C380068C0B2DF
:10047000401CB1FBF0F02D4908601BE02848883093
:100480000068C0F30E00401C41002548D0F88800E9
:10049000C0F30740401CB1FBF0F14FF4FA40414378
:1004A0001E489C380068C0B2401CB1FBF0F01F49E8
:1004B000086000BF30E019489438006810F003006D
:1004C00006D0012810D0022819D0032823D100E03B
:1004D00000BF12489C380068C0B2401C1249B1FBF2
:1004E000F0F01249086016E00C489C380068C0B271
:1004F000401C0F49B1FBF0F00C4908600BE00748C5
:100500009C380068C0B2401C4FF4FA41B1FBF0F0D7
:100510000649086000BF00BF70470000A0C10F403F
:1005200000C00F40DE87280400093D0000000010D5
:10053000001BB700002100BF00E0491C8142FCD332
:10054000704700B50346CA4803700221C8483438D2
:100550004177042141768802FFF7ECFF0421C4486B
:10056000343841778803FFF7E5FF00BD10B5044636
:100570000A2094FBF0F100FB11403030BD490870B7
:100580000A2094FBF0F084B20A2094FBF0F100FB07
:1005900011403030B84908700A2094FBF0F084B262
:1005A0000A2094FBF0F100FB11403030B349087091
:1005B0000A2094FBF0F084B20A2094FBF0F100FBD7
:1005C00011403030AE490870AC480078AD49087031
:1005D000AA480078FFF7B5FF4FF41040FFF7AAFFD5
:1005E000A5480078A7490870A3480078FFF7A9FF3D
:1005F0004FF41040FFF79EFF9E480078A149087015
:100600004FF41040FFF796FF9A480078FFF799FFE4
:100610000D209C4908704FF41040FFF78BFF0A2013
:10062000984908704FF41040FFF784FF10BD00B5E3
:100630004FF41020FFF77EFF01218D485438817759
:100640000804FFF777FF01208F49886000BF8E48BC
:10065000406800F080008028F9D18B4880688B4981
:100660000870A0208849886000BF8748406800F073
:1006700080008028F9D1844880688549087000206E
:100680008149886000BF8048406800F08000802871
:10069000F9D17D4880687F4908704FF41040FFF71A
:1006A00049FF01217248543881764FF41020FFF73A
:1006B00041FF00BD7848006840F04040764908603E
:1006C0000846406840F03C004860012068495439C1
:1006D00088700121664854388176FE206A49C860D6
:1006E00040F62400086070476B48006840F05000F6
:1006F00069490860832063490873752008700020E9
:10070000087110205F492831087003205D49087383
:1007100007200872704710B5FFF7F2FDFFF7E4FFFE
:10072000FFF7C8FFF8215248343841740720504978
:100730003339087000204E49543981F85000FF20A9
:100740004B4914390870EF2149483438C1741020DE
:100750004749543981F82300102145483438C1777E
:100760000021434854388174FF204149543988702E
:1007700001213F48343841770020484908700AE099
:100780004749464A1278885CFFF7DBFE4348007809
:10079000401C42490870414800780528F0DB0121DF
:1007A00033483438417600203C4908700AE03D491E
:1007B0003A4A1278885CFFF7C4FE38480078401C3B
:1007C00036490870374835490978405C0028EED131
:1007D0004CE04FF00070FFF7ADFEFFF728FF2D480B
:1007E00000782B49097840EA01202F490880084603
:1007F0000088C0F30B000880084600880D2190FB9C
:10080000F1F02949088008460088192812DD1021D6
:1008100017483438C1764021154854388176202154
:1008200081764FF4A000FFF785FE20211048543850
:10083000817708E010210E483438C177C1776021F4
:100840000B485438817718480088FFF78FFE012144
:100850000748343841778520FFF773FE41F288302E
:10086000FFF768FE0121024834384176B1E7000005
:1008700054C00920040000100500001006000010FC
:100880000700001000C000400000024008000010F7
:10089000090000100A00001000C0024019000010FA
:1008A0000E000010130000100C00001000093D00A5
:1008B00000000000000000000000380E0601805417
:0808C000656D703D00000000B1
:040000050000016195
:00000001FF
