:020000040000FA
:100000006802001061010000650100006701000046
:10001000690100006B0100006D010000000000009C
:100020000000000000000000000000006F01000060
:100030007101000000000000730100007501000064
:1000400077010000770100007701000077010000D0
:1000500077010000770100007701000077010000C0
:1000600077010000770100007701000077010000B0
:1000700077010000770100007701000077010000A0
:100080007701000077010000770100007701000090
:100090007701000077010000770100007701000080
:1000A0007701000077010000770100007701000070
:1000B0007701000077010000770100007701000060
:1000C0007701000000F002F800F03CF80AA090E888
:1000D000000C82448344AAF10107DA4501D100F003
:1000E00031F8AFF2090EBAE80F0013F0010F18BF94
:1000F000FB1A43F0010318477C0100009C0100003B
:10010000103A24BF78C878C1FAD8520724BF30C843
:1001100030C144BF04680C60704700000023002415
:1001200000250026103A28BF78C1FBD8520728BF07
:1001300030C148BF0B6070471FB5AFF300801FBDD3
:1001400010B510BD00F05BF81146FFF7F5FF00F0A9
:100150003EFA00F079F8FFF7F3FF00F07FF80000B7
:1001600008480047FEE7FEE7FEE7FEE7FEE7FEE79A
:10017000FEE7FEE7FEE7FEE703480449024A044BB8
:1001800070470000C5000000680000106802001001
:100190006800001010B5203AC0F00B80B1E818508C
:1001A000203AA0E81850B1E81850A0E81850BFF461
:1001B000F5AF5FEA027C24BFB1E81850A0E8185000
:1001C00044BF18C918C0BDE810405FEA827C24BF54
:1001D00051F8043B40F8043B08BF7047D20728BFE2
:1001E00031F8023B48BF11F8012B28BF20F8023B31
:1001F00048BF00F8012B704770477047704775463D
:1002000000F028F8AE4605006946534620F0070086
:10021000854618B020B5FFF7AFFFBDE820404FF08E
:1002200000064FF000074FF000084FF0000B21F0E0
:100230000701AC46ACE8C009ACE8C009ACE8C009AD
:10024000ACE8C0098D4670470446AFF300802046F5
:10025000FFF781FF004870470400001003494FF08A
:100260001800ABBE70470000090000002600020025
:100270007047000054070000000000100400000058
:100280000001000058070000040000106402000094
:100290001C01000000000000000000000000000041
:1002A000000000000000000000000000000000004E
:1002B000000000000000000000000000000000003E
:1002C000000000000000000000000000000000002E
:1002D000000000000000000000000000000000001E
:1002E000000000000000000000000000000000000E
:1002F000000000000000000000000000FFFFFFFF02
:1003000000202021854A116000BF8449096811F04E
:10031000400FFAD00321814A9C3A11600021804AA3
:10032000C2F8A8117D4A0C32116001217B4A943A2F
:1003300011600B217A4A843211600121121F116071
:10034000AA21774A8C3211605521754AC2F88C1067
:10035000724994390968022907D000BF7049883171
:10036000096811F0806FF9D004E0002000E0401C23
:100370006428FCD903216A4A80321160AA21684AA4
:10038000C2F88C105521664A8C3211602321644AD0
:10039000A43211600121121F1160AA21604AAC32FF
:1003A00011605521116000BF5D49A831096811F441
:1003B000806FF9D003215A4AA0321160AA21584A0D
:1003C000C2F8AC105521564AAC3211605549544A16
:1003D000C43211600021514A2832116043F23A01BF
:1003E0004F4A116070474E4888300068C0F3016082
:1003F000032860D149489438006810F0030006D003
:10040000012820D0022839D0032853D100E000BFB2
:10041000434888300068C0F30E00401C410040484B
:10042000D0F88800C0F30740401CB1FBF0F13E4813
:1004300041433A489C380068C0B2401CB1FBF0F020
:100440003A49086036E0364888300068C0F30E004C
:10045000401C41003248D0F88800C0F30740401CDF
:10046000B1FBF0F1324841432C489C380068C0B2DF
:10047000401CB1FBF0F02D4908601BE02848883093
:100480000068C0F30E00401C41002548D0F88800E9
:10049000C0F30740401CB1FBF0F14FF4FA40414378
:1004A0001E489C380068C0B2401CB1FBF0F01F49E8
:1004B000086000BF30E019489438006810F003006D
:1004C00006D0012810D0022819D0032823D100E03B
:1004D00000BF12489C380068C0B2401C1249B1FBF2
:1004E000F0F01249086016E00C489C380068C0B271
:1004F000401C0F49B1FBF0F00C4908600BE00748C5
:100500009C380068C0B2401C4FF4FA41B1FBF0F0D7
:100510000649086000BF00BF70470000A0C10F403F
:1005200000C00F40DE87280400093D0000000010D5
:10053000001BB700002100E0491C8142FCD370473A
:10054000002114E0425C714B1A7000BF6F4A127DAB
:1005500002F02002202AF9D1425C6D4B1A7000BFD4
:100560006B4A127D02F02002202AF9D1491C425C1C
:10057000002AE7D10D22664B1A7000BF644A127D33
:1005800002F02002202AF9D170474FF070606149D3
:10059000486283205D490873002008717520087047
:1005A00010205A49283108700320584908735020F8
:1005B0005849086083205649087300200871752047
:1005C0000870102081F8280003200873704730B5A8
:1005D0009DB051A103C9CDE90B0108A850A11CC9C8
:1005E0001CC005A851A11CC91CC0142252A16846F8
:1005F000FFF7D0FDFFF784FE544855490860FFF728
:10060000C4FF0BA8FFF79CFF4FF40010FFF792FF09
:1006100008A8FFF795FF4FF40010FFF78BFF05A820
:10062000FFF78EFF4FF40010FFF784FF6846FFF7D7
:1006300087FF4FF40010FFF77DFF00BF00BF334876
:10064000007D00F001000128F9D1304804783048DD
:10065000047000BF2E48007D00F020002028F9D152
:100660002B2CEBD1002500BF00BF2848007D00F0F7
:1006700001000128F9D12548007815A948552846D8
:100680006D1C085C0A28EFD1002500BF00BF1F4881
:10069000007D00F001000128F9D11C4800780DA967
:1006A000485528466D1C085C3B28EFD100250BE01F
:1006B00015A8405D1649087000BF1548007D00F080
:1006C00020002028F9D16D1C15A8405D0028EFD12D
:1006D0000D200F49087000BF0D48007D00F020007C
:1006E0002028F9D100250BE00DA8405D08490870CD
:1006F00000BF0748007D00F020002028F9D16D1CC4
:100700000DA8405D0028EFD11DB030BD00C00940EC
:1007100000C0004000C0024041540D0A000000002B
:1007200041542B435245473F0D0A000041542B438F
:100730004D47463D310D0A0041542B434E4D493D36
:10074000312C322C302C302C300D0A000880000265
:08075000C4C00F4000093D0088
:040000050000016195
:00000001FF
