:020000040000FA
:100000006802001061010000650100006701000046
:10001000690100006B0100006D010000000000009C
:100020000000000000000000000000006F01000060
:100030007101000000000000730100007501000064
:1000400077010000770100007701000077010000D0
:1000500077010000770100007701000077010000C0
:1000600077010000770100007701000077010000B0
:1000700077010000770100007701000077010000A0
:100080007701000077010000770100007701000090
:100090007701000077010000770100007701000080
:1000A0007701000077010000770100007701000070
:1000B0007701000077010000770100007701000060
:1000C0007701000000F002F800F03CF80AA090E888
:1000D000000C82448344AAF10107DA4501D100F003
:1000E00031F8AFF2090EBAE80F0013F0010F18BF94
:1000F000FB1A43F0010318477C0100009C0100003B
:10010000103A24BF78C878C1FAD8520724BF30C843
:1001100030C144BF04680C60704700000023002415
:1001200000250026103A28BF78C1FBD8520728BF07
:1001300030C148BF0B6070471FB5AFF300801FBDD3
:1001400010B510BD00F05BF81146FFF7F5FF00F0A9
:1001500074FA00F079F8FFF7F3FF00F07FF8000081
:1001600008480047FEE7FEE7FEE7FEE7FEE7FEE79A
:10017000FEE7FEE7FEE7FEE703480449024A044BB8
:1001800070470000C5000000680000106802001001
:100190006800001010B5203AC0F00B80B1E818508C
:1001A000203AA0E81850B1E81850A0E81850BFF461
:1001B000F5AF5FEA027C24BFB1E81850A0E8185000
:1001C00044BF18C918C0BDE810405FEA827C24BF54
:1001D00051F8043B40F8043B08BF7047D20728BFE2
:1001E00031F8023B48BF11F8012B28BF20F8023B31
:1001F00048BF00F8012B704770477047704775463D
:1002000000F028F8AE4605006946534620F0070086
:10021000854618B020B5FFF7AFFFBDE820404FF08E
:1002200000064FF000074FF000084FF0000B21F0E0
:100230000701AC46ACE8C009ACE8C009ACE8C009AD
:10024000ACE8C0098D4670470446AFF300802046F5
:10025000FFF781FF004870470400001003494FF08A
:100260001800ABBE70470000090000002600020025
:1002700070470000B40700000000001004000000F8
:1002800000010000B8070000040000106402000034
:100290001C01000000000000000000000000000041
:1002A000000000000000000000000000000000004E
:1002B000000000000000000000000000000000003E
:1002C000000000000000000000000000000000002E
:1002D000000000000000000000000000000000001E
:1002E000000000000000000000000000000000000E
:1002F000000000000000000000000000FFFFFFFF02
:1003000000202021854A116000BF8449096811F04E
:10031000400FFAD00321814A9C3A11600021804AA3
:10032000C2F8A8117D4A0C32116001217B4A943A2F
:1003300011600B217A4A843211600121121F116071
:10034000AA21774A8C3211605521754AC2F88C1067
:10035000724994390968022907D000BF7049883171
:10036000096811F0806FF9D004E0002000E0401C23
:100370006428FCD903216A4A80321160AA21684AA4
:10038000C2F88C105521664A8C3211602321644AD0
:10039000A43211600121121F1160AA21604AAC32FF
:1003A00011605521116000BF5D49A831096811F441
:1003B000806FF9D003215A4AA0321160AA21584A0D
:1003C000C2F8AC105521564AAC3211605549544A16
:1003D000C43211600021514A2832116043F23A01BF
:1003E0004F4A116070474E4888300068C0F3016082
:1003F000032860D149489438006810F0030006D003
:10040000012820D0022839D0032853D100E000BFB2
:10041000434888300068C0F30E00401C410040484B
:10042000D0F88800C0F30740401CB1FBF0F13E4813
:1004300041433A489C380068C0B2401CB1FBF0F020
:100440003A49086036E0364888300068C0F30E004C
:10045000401C41003248D0F88800C0F30740401CDF
:10046000B1FBF0F1324841432C489C380068C0B2DF
:10047000401CB1FBF0F02D4908601BE02848883093
:100480000068C0F30E00401C41002548D0F88800E9
:10049000C0F30740401CB1FBF0F14FF4FA40414378
:1004A0001E489C380068C0B2401CB1FBF0F01F49E8
:1004B000086000BF30E019489438006810F003006D
:1004C00006D0012810D0022819D0032823D100E03B
:1004D00000BF12489C380068C0B2401C1249B1FBF2
:1004E000F0F01249086016E00C489C380068C0B271
:1004F000401C0F49B1FBF0F00C4908600BE00748C5
:100500009C380068C0B2401C4FF4FA41B1FBF0F0D7
:100510000649086000BF00BF70470000A0C10F403F
:1005200000C00F40DE87280400093D0000000010D5
:10053000001BB700002100E0491C8142FCD370473A
:1005400010B50346002400BF14E000BF7A48007DC8
:1005500000F001000128F9D1774800781855185D9E
:100560007649087000BF7548007D00F02000202803
:10057000F9D1641C0C2CE8D300240AE0185D6F4903
:10058000087000BF6D48007D00F020002028F9D1E0
:10059000641C0C2CF2D31A206949087000BF68480B
:1005A000007D00F020002028F9D10004FFF7C2FFF1
:1005B00010BD00210AE0425C614B1A7000BF604A26
:1005C000127D02F02002202AF9D1491C425C002A47
:1005D000F1D170474FF070605A4948628320564904
:1005E00008730020087175200870102052492831C6
:1005F0000870032050490873502052490860832036
:100600004E4908730020087175200870102081F889
:100610002800032008734FF080404A4908600120F9
:1006200048608320464908730020087175200870CF
:100630001020886203200873704730B59FB01BA854
:1006400041A11EC91EC018A843A11CC91CC014A8E2
:1006500044A11EC91EC047A103C9CDE912010FA8BC
:1006600046A11CC91CC00CA847A11CC91CC018224B
:1006700048A106A8FFF78EFDFFF742FE4B484C4904
:100680000860FFF7A7FF12A8FFF793FF4FF40010D1
:10069000FFF750FF0FA8FFF78CFF4FF40010FFF794
:1006A00049FF0CA8FFF785FF4FF40010FFF742FF4A
:1006B00006A8FFF77EFF4FF40010FFF73BFF01A8ED
:1006C000FFF73EFF00240AE01BA8005D01A9095DB9
:1006D000884201D1002501E0012502E0641C0C2CB8
:1006E000F2D300BF95B900240BE018A8005D1349B0
:1006F000087000BF1148007D00F020002028F9D1CB
:10070000641C18A8005D0028EFD111E000240BE064
:1007100014A8005D0949087000BF0848007D00F07A
:1007200020002028F9D1641C14A8005D0028EFD116
:1007300000201FB030BD000000C0094000C00040D4
:100740000000014000C002403039303038323036CD
:1007500042333345000000002020636F72726563EE
:10076000740D0A0020206E6F7420636F72726563CF
:10077000740D0A0041540D0A0000000041542B433F
:100780005245473F0D0A000041542B434D47463D1B
:10079000310D0A0041542B434D47533D223831302F
:1007A00035383432353336220D0A00000880000215
:0807B000C4C00F4000093D0028
:040000050000016195
:00000001FF
