:020000040000FA
:100000006802001061010000650100006701000046
:10001000690100006B0100006D010000000000009C
:100020000000000000000000000000006F01000060
:100030007101000000000000730100007501000064
:1000400077010000770100007701000077010000D0
:1000500077010000770100007701000077010000C0
:1000600077010000770100007701000077010000B0
:1000700077010000770100007701000077010000A0
:100080007701000077010000770100007701000090
:100090007701000077010000770100007701000080
:1000A0007701000077010000770100007701000070
:1000B0007701000077010000770100007701000060
:1000C0007701000000F002F800F03CF80AA090E888
:1000D000000C82448344AAF10107DA4501D100F003
:1000E00031F8AFF2090EBAE80F0013F0010F18BF94
:1000F000FB1A43F0010318477C0100009C0100003B
:10010000103A24BF78C878C1FAD8520724BF30C843
:1001100030C144BF04680C60704700000023002415
:1001200000250026103A28BF78C1FBD8520728BF07
:1001300030C148BF0B6070471FB5AFF300801FBDD3
:1001400010B510BD00F05BF81146FFF7F5FF00F0A9
:100150002EFA00F079F8FFF7F3FF00F07FF80000C7
:1001600008480047FEE7FEE7FEE7FEE7FEE7FEE79A
:10017000FEE7FEE7FEE7FEE703480449024A044BB8
:1001800070470000C5000000680000106802001001
:100190006800001010B5203AC0F00B80B1E818508C
:1001A000203AA0E81850B1E81850A0E81850BFF461
:1001B000F5AF5FEA027C24BFB1E81850A0E8185000
:1001C00044BF18C918C0BDE810405FEA827C24BF54
:1001D00051F8043B40F8043B08BF7047D20728BFE2
:1001E00031F8023B48BF11F8012B28BF20F8023B31
:1001F00048BF00F8012B704770477047704775463D
:1002000000F028F8AE4605006946534620F0070086
:10021000854618B020B5FFF7AFFFBDE820404FF08E
:1002200000064FF000074FF000084FF0000B21F0E0
:100230000701AC46ACE8C009ACE8C009ACE8C009AD
:10024000ACE8C0098D4670470446AFF300802046F5
:10025000FFF781FF004870470400001003494FF08A
:100260001800ABBE70470000090000002600020025
:10027000704700008C070000000000100400000020
:10028000000100009007000004000010640200005C
:100290001C01000000000000000000000000000041
:1002A000000000000000000000000000000000004E
:1002B000000000000000000000000000000000003E
:1002C000000000000000000000000000000000002E
:1002D000000000000000000000000000000000001E
:1002E000000000000000000000000000000000000E
:1002F000000000000000000000000000FFFFFFFF02
:1003000000202021854A116000BF8449096811F04E
:10031000400FFAD00321814A9C3A11600021804AA3
:10032000C2F8A8117D4A0C32116001217B4A943A2F
:1003300011600B217A4A843211600121121F116071
:10034000AA21774A8C3211605521754AC2F88C1067
:10035000724994390968022907D000BF7049883171
:10036000096811F0806FF9D004E0002000E0401C23
:100370006428FCD903216A4A80321160AA21684AA4
:10038000C2F88C105521664A8C3211602321644AD0
:10039000A43211600121121F1160AA21604AAC32FF
:1003A00011605521116000BF5D49A831096811F441
:1003B000806FF9D003215A4AA0321160AA21584A0D
:1003C000C2F8AC105521564AAC3211605549544A16
:1003D000C43211600021514A2832116043F23A01BF
:1003E0004F4A116070474E4888300068C0F3016082
:1003F000032860D149489438006810F0030006D003
:10040000012820D0022839D0032853D100E000BFB2
:10041000434888300068C0F30E00401C410040484B
:10042000D0F88800C0F30740401CB1FBF0F13E4813
:1004300041433A489C380068C0B2401CB1FBF0F020
:100440003A49086036E0364888300068C0F30E004C
:10045000401C41003248D0F88800C0F30740401CDF
:10046000B1FBF0F1324841432C489C380068C0B2DF
:10047000401CB1FBF0F02D4908601BE02848883093
:100480000068C0F30E00401C41002548D0F88800E9
:10049000C0F30740401CB1FBF0F14FF4FA40414378
:1004A0001E489C380068C0B2401CB1FBF0F01F49E8
:1004B000086000BF30E019489438006810F003006D
:1004C00006D0012810D0022819D0032823D100E03B
:1004D00000BF12489C380068C0B2401C1249B1FBF2
:1004E000F0F01249086016E00C489C380068C0B271
:1004F000401C0F49B1FBF0F00C4908600BE00748C5
:100500009C380068C0B2401C4FF4FA41B1FBF0F0D7
:100510000649086000BF00BF70470000A0C10F403F
:1005200000C00F40DE87280400093D0000000010D5
:10053000001BB700002100BF14E000BF5E4A127D1F
:1005400002F00102012AF9D15B4A12784254425C5E
:100550005A4B1A7000BF594A127D02F02002202A1D
:10056000F9D1491C0C29E8D370474FF07060544909
:100570004862832050490873002008717520087074
:1005800010204D492831087003204B490873502032
:100590004B49086083204949087300200871752081
:1005A0000870102081F8280003200873704770B588
:1005B000B4B08C22434911A8FFF7ECFD0EA842A16C
:1005C0000EC90EC00AA843A191E80C5080E80C5057
:1005D000142244A105A8FFF7DDFDFFF791FE464870
:1005E00046490860FFF7C1FF5FE06846FFF7A2FFDA
:1005F0000024002512E0C4EBC40011A901EB400067
:10060000405D1DF80510884201D1002605E0012655
:10061000641C00250A2C00D102E06D1C0C2DEAD3CD
:1006200000BF002E2FD100240BE00EA8005D23494F
:10063000087000BF2148007D00F020002028F9D17B
:10064000641C0EA8005D0028EFD100240BE005A873
:10065000005D1A49087000BF1848007D00F02000B6
:100660002028F9D1641C05A8005D0028EFD104F111
:1006700030001249087000BF1048007D00F02000D3
:100680002028F9D111E000240BE00AA8005D0B49F5
:10069000087000BF0948007D00F020002028F9D133
:1006A000641C0AA8005D0028EFD19EE7002100E04D
:1006B000491C8142FCD3704700C0094000C0004083
:1006C00000C00240000700002020636F7272656363
:1006D000740D0A0020206E6F7420636F7272656360
:1006E000740D0A00202063617264206E756D62656E
:1006F00072206973203D000008800002C4C00F40D2
:1007000030393030383230364233334500003039FA
:1007100030303832304135434444000030393030D5
:1007200038323036443435390000303930303832E0
:1007300030364138323500003039303038323036DA
:1007400042453333000030393030383230364339A7
:1007500034340000303930303832303731303943BA
:10076000000030393030383433343434463300000C
:100770003039303038343333364344320000303986
:1007800030303832303730353839000000093D001C
:040000050000016195
:00000001FF
