:020000040000FA
:10000000700200106901000071010000730100001E
:100010007501000077010000790100000000000078
:100020000000000000000000000000007B01000054
:100030007D010000000000007F0100008101000040
:1000400083010000830100008301000083010000A0
:100050008301000083010000830100008301000090
:100060008301000083010000830100008301000080
:100070008301000083010000830100008301000070
:100080008301000083010000830100008301000060
:100090008301000083010000830100008301000050
:1000A0008301000083010000830100008301000040
:1000B0008301000083010000830100008301000030
:1000C00083010000830100008301000000F002F8BA
:1000D00000F03CF80AA090E8000C82448344AAF1A6
:1000E0000107DA4501D100F031F8AFF2090EBAE8A4
:1000F0000F0013F0010F18BFFB1A43F0010318475C
:100100002001000040010000103A24BF78C878C1E7
:10011000FAD8520724BF30C830C144BF04680C600D
:10012000704700000023002400250026103A28BF55
:1001300078C1FBD8520728BF30C148BF0B60704759
:100140001FB5AFF300801FBD10B510BD00F02DF836
:100150001146FFF7F5FF00F078FA00F04BF8FFF7D3
:10016000F3FF00F051F800000948804709480047B4
:10017000FEE7FEE7FEE7FEE7FEE7FEE7FEE7FEE757
:10018000FEE7FEE704480549034A054B70470000B7
:1001900001030000CD00000070000010700200108C
:1001A00070000010704770477047754600F028F8DF
:1001B000AE4605006946534620F00700854618B054
:1001C00020B5FFF7DFFFBDE820404FF000064FF0FD
:1001D00000074FF000084FF0000B21F00701AC467C
:1001E000ACE8C009ACE8C009ACE8C009ACE8C0099B
:1001F0008D4670470446AFF300802046FFF7AFFFFF
:10020000004870471000001003494FF01800ABBEC3
:10021000704700000900000026000200704700003F
:10022000E0060000000000101000000008010000BF
:10023000F006000010000010600200002401000021
:1002400000000000000000000000000000000000AE
:10025000000000000000000000000000000000009E
:10026000000000000000000000000000000000008E
:10027000000000000000000000000000000000007E
:10028000000000000000000000000000000000006E
:10029000000000000000000000000000000000005E
:1002A000000000000000000000000000000000004E
:1002B000000000000000000000000000000000003E
:1002C000000000000000000000000000000000002E
:1002D000000000000000000000000000000000001E
:1002E000000000000000000000000000000000000E
:1002F000000000000000000000000000FFFFFFFF02
:1003000000202021854A116000BF8449096811F04E
:10031000400FFAD00321814A9C3A11600021804AA3
:10032000C2F8A8117D4A0C32116001217B4A943A2F
:1003300011600B217A4A843211600121121F116071
:10034000AA21774A8C3211605521754AC2F88C1067
:10035000724994390968022907D000BF7049883171
:10036000096811F0806FF9D004E0002000E0401C23
:100370006428FCD903216A4A80321160AA21684AA4
:10038000C2F88C105521664A8C3211602321644AD0
:10039000A43211600121121F1160AA21604AAC32FF
:1003A00011605521116000BF5D49A831096811F441
:1003B000806FF9D003215A4AA0321160AA21584A0D
:1003C000C2F8AC105521564AAC3211605549544A16
:1003D000C43211600021514A2832116043F23A01BF
:1003E0004F4A116070474E4888300068C0F3016082
:1003F000032860D149489438006810F0030006D003
:10040000012820D0022839D0032853D100E000BFB2
:10041000434888300068C0F30E00401C410040484B
:10042000D0F88800C0F30740401CB1FBF0F13E4813
:1004300041433A489C380068C0B2401CB1FBF0F020
:100440003A49086036E0364888300068C0F30E004C
:10045000401C41003248D0F88800C0F30740401CDF
:10046000B1FBF0F1324841432C489C380068C0B2DF
:10047000401CB1FBF0F02D4908601BE02848883093
:100480000068C0F30E00401C41002548D0F88800E9
:10049000C0F30740401CB1FBF0F14FF4FA40414378
:1004A0001E489C380068C0B2401CB1FBF0F01F49E8
:1004B000086000BF30E019489438006810F003006D
:1004C00006D0012810D0022819D0032823D100E03B
:1004D00000BF12489C380068C0B2401C1249B1FBF2
:1004E000F0F01249086016E00C489C380068C0B271
:1004F000401C0F49B1FBF0F00C4908600BE00748C5
:100500009C380068C0B2401C4FF4FA41B1FBF0F0D7
:100510000649086000BF00BF70470000A0C10F403F
:1005200000C00F40DE87280400093D0000000010D5
:10053000001BB70030B50022002304E0CC5CDD00D6
:10054000AC4022435B1C042BF8D300BF564CE4693B
:1005500004F00404042CF9D1544C534D2C632C4664
:100560006063A26321246C6030BD30B50546002471
:100570000BE00A20B5FBF0F100FB11504C49085587
:100580000A20B5FBF0F5601CC4B2042CF1DB48482E
:10059000C07830304749087045488078303048701E
:1005A0004348407830308870414800783030C87017
:1005B0002120FFF7BFFF30BD01203F490860122016
:1005C0003E4908601420486000203B49086070479D
:1005D000012039490860002048608860C860082010
:1005E00008614861002008607047002034490860B5
:1005F0003448006840F005003249086001202A496B
:100600000860002048608860012008612E48486129
:100610000020086070472B48006840F050002949CE
:100620000860274800682949C1F8A80183202849A3
:1006300008730020087175200870102024492831A3
:100640000870032022490873704710B5FFF758FE61
:100650004FF0FF301D49C431086080071949C86058
:100660001C481D490860FFF7D6FFFFF7BEFFFFF7E4
:10067000AFFFFFF7A1FF10E000BF1748006B00F0CD
:1006800020002028F9D11448406AC0F30B1401213E
:10069000124841762046FFF768FFEDE7002100E0B1
:1006A000491C8142FCD37047004004400000048094
:1006B000050000100900001000C003400080034046
:1006C000A8C10F4000C0024007001C0000C00F403E
:1006D00000C00040200321000040034020C009204A
:1006E00000093D00000000000000000000000000C4
:04000005000000CD2A
:00000001FF
