:020000040000FA
:100000006802001069010000710100007301000026
:100010007501000077010000790100000000000078
:100020000000000000000000000000007B01000054
:100030007D010000000000007F0100008101000040
:1000400083010000830100008301000083010000A0
:100050008301000083010000830100008301000090
:100060008301000083010000830100008301000080
:100070008301000083010000830100008301000070
:100080008301000083010000830100008301000060
:100090008301000083010000830100008301000050
:1000A0008301000083010000830100008301000040
:1000B0008301000083010000830100008301000030
:1000C00083010000830100008301000000F002F8BA
:1000D00000F03CF80AA090E8000C82448344AAF1A6
:1000E0000107DA4501D100F031F8AFF2090EBAE8A4
:1000F0000F0013F0010F18BFFB1A43F0010318475C
:10010000B0040000D0040000103A24BF78C878C1C1
:10011000FAD8520724BF30C830C144BF04680C600D
:10012000704700000023002400250026103A28BF55
:1001300078C1FBD8520728BF30C148BF0B60704759
:100140001FB5AFF300801FBD10B510BD00F0F5F96D
:100150001146FFF7F5FF00F090F800F013FAFFF7F3
:10016000F3FF00F019FA00000948804709480047EA
:10017000FEE7FEE7FEE7FEE7FEE7FEE7FEE7FEE757
:10018000FEE7FEE704480549034A054B70470000B7
:1001900001030000CD00000068000010680200109C
:1001A0006800001000BF4C4AD26902F00402042A21
:1001B000F9D14A4A484B1A631A4650639163212287
:1001C0005A60704701204649086020204549086070
:1001D00021204860002042490860704701204049C2
:1001E0000860002048608860C86008200861486195
:1001F0000020086070473C48006840F400503A49CD
:10020000C439C1F8C4000846D0F8A801C1F8A80153
:100210003648006840F005003449086001202E4946
:10022000086000204860886001200861304848610B
:100230000020086070472C4800682B49C439C1F879
:10024000C4002A48006840F0500028490860264849
:10025000C438D0F8A8012449E43108608320254936
:10026000087300200871752008701020214928317A
:10027000087003201F490873704710B500F040F85C
:10028000FFF7D9FFFFF7B7FFFFF7A8FFFFF79AFFC8
:100290001BE000BF1748007D00F001000128F9D1E4
:1002A000144800781449087008460078302804D1B2
:1002B00030212120FFF776FF07E00F480078312832
:1002C00003D131212120FFF76DFFE2E7002100E09B
:1002D000491C8142FCD3704700400440000001806B
:1002E00000C0034000800340C4C00F4000C0024073
:1002F00007001C0000C0004004000010FFFFFFFFCB
:1003000000202021854A116000BF8449096811F04E
:10031000400FFAD00321814A9C3A11600021804AA3
:10032000C2F8A8117D4A0C32116001217B4A943A2F
:1003300011600B217A4A843211600121121F116071
:10034000AA21774A8C3211605521754AC2F88C1067
:10035000724994390968022907D000BF7049883171
:10036000096811F0806FF9D004E0002000E0401C23
:100370006428FCD903216A4A80321160AA21684AA4
:10038000C2F88C105521664A8C3211602321644AD0
:10039000A43211600121121F1160AA21604AAC32FF
:1003A00011605521116000BF5D49A831096811F441
:1003B000806FF9D003215A4AA0321160AA21584A0D
:1003C000C2F8AC105521564AAC3211605549544A16
:1003D000C43211600021514A2832116043F23A01BF
:1003E0004F4A116070474E4888300068C0F3016082
:1003F000032860D149489438006810F0030006D003
:10040000012820D0022839D0032853D100E000BFB2
:10041000434888300068C0F30E00401C410040484B
:10042000D0F88800C0F30740401CB1FBF0F13E4813
:1004300041433A489C380068C0B2401CB1FBF0F020
:100440003A49086036E0364888300068C0F30E004C
:10045000401C41003248D0F88800C0F30740401CDF
:10046000B1FBF0F1324841432C489C380068C0B2DF
:10047000401CB1FBF0F02D4908601BE02848883093
:100480000068C0F30E00401C41002548D0F88800E9
:10049000C0F30740401CB1FBF0F14FF4FA40414378
:1004A0001E489C380068C0B2401CB1FBF0F01F49E8
:1004B000086000BF30E019489438006810F003006D
:1004C00006D0012810D0022819D0032823D100E03B
:1004D00000BF12489C380068C0B2401C1249B1FBF2
:1004E000F0F01249086016E00C489C380068C0B271
:1004F000401C0F49B1FBF0F00C4908600BE00748C5
:100500009C380068C0B2401C4FF4FA41B1FBF0F0D7
:100510000649086000BF00BF70470000A0C10F403F
:1005200000C00F40DE87280400093D0000000010D5
:10053000001BB700704770477047754600F028F8F9
:10054000AE4605006946534620F00700854618B0C0
:1005500020B5FFF717FEBDE820404FF000064FF032
:1005600000074FF000084FF0000B21F00701AC46E8
:10057000ACE8C009ACE8C009ACE8C009ACE8C00907
:100580008D4670470446AFF300802046FFF7E7FD35
:10059000004870470800001003494FF01800ABBE38
:1005A00070470000090000002600020070470000AC
:1005B000D005000000000010080000000801000045
:1005C000D8050000080000106002000024010000AF
:0805D00000093D0000000000DD
:04000005000000CD2A
:00000001FF
