:020000040000FA
:100000006802001069010000710100007301000026
:100010007501000077010000790100000000000078
:100020000000000000000000000000007B01000054
:100030007D010000000000007F0100008101000040
:1000400083010000830100008301000083010000A0
:100050008301000083010000830100008301000090
:100060008301000083010000830100008301000080
:100070008301000083010000830100008301000070
:100080008301000083010000830100008301000060
:100090008301000083010000830100008301000050
:1000A0008301000083010000830100008301000040
:1000B0008301000083010000830100008301000030
:1000C00083010000830100008301000000F002F8BA
:1000D00000F03AF80AA090E8000C82448344AAF1A8
:1000E0000107DA4501D100F02FF8AFF2090EBAE8A6
:1000F0000F0013F0010F18BFFB1A43F0010318475C
:100100001801000038010000103A24BF78C878C1F7
:10011000FAD8520724BF30C830C144BF04680C600D
:10012000704700000023002400250026103A28BF55
:1001300078C1FBD8520728BF30C148BF0B60704759
:100140001FB51FBD10B510BD00F02FF81146FFF709
:10015000F7FF00F07CFA00F04DF803B4FFF7F2FF70
:1001600003BC00F051F800000948804709480047E7
:10017000FEE7FEE7FEE7FEE7FEE7FEE7FEE7FEE757
:10018000FEE7FEE704480549034A054B70470000B7
:1001900001030000CD00000068000010680200109C
:1001A00068000010704770477047754600F028F8E7
:1001B000AE4605006946534620F00700854618B054
:1001C00020B5FFF7DFFFBDE820404FF000064FF0FD
:1001D00000074FF000084FF0000B21F00701AC467C
:1001E000ACE8C009ACE8C009ACE8C009ACE8C0099B
:1001F0008D4670470446AFF300802046FFF7ADFF01
:10020000004870470800001001491820ABBEFEE707
:100210002600020070470000D80600000000001011
:100220000800000008010000E006000008000010BF
:100230006002000024010000000000000000000037
:1002400000000000000000000000000000000000AE
:10025000000000000000000000000000000000009E
:10026000000000000000000000000000000000008E
:10027000000000000000000000000000000000007E
:10028000000000000000000000000000000000006E
:10029000000000000000000000000000000000005E
:1002A000000000000000000000000000000000004E
:1002B000000000000000000000000000000000003E
:1002C000000000000000000000000000000000002E
:1002D000000000000000000000000000000000001E
:1002E000000000000000000000000000000000000E
:1002F000000000000000000000000000FFFFFFFF02
:1003000000202021884A116000BF8749096811F048
:10031000400FFAD00321854A11604FF00001844A52
:10032000C2F8A811834A11604FF00101824A11609E
:100330004FF00B01814A11604FF00101A2F104025C
:1003400011604FF0AA017E4A11604FF05501784AC2
:10035000C2F88C1078490968022906D000BF794993
:10036000096811F0806FFAD004E0002000E0401C22
:100370006428FCD90321744A11604FF0AA016C4A29
:10038000C2F88C104FF055016D4A11604FF02301F7
:100390006E4A11604FF00101A2F1040211604FF0AA
:1003A000AA016B4A11604FF05501116000BF694905
:1003B000096811F4806FFAD00321674A11604FF089
:1003C000AA015B4AC2F8AC104FF05501604A1160B7
:1003D0006249634A11604FF00001624A116043F2C2
:1003E0003A01534A1160704756480068C0F30160F3
:1003F000032868D15048006810F0030006D0012897
:1004000023D002283FD003285CD100E000BF4D4834
:100410000068C0F30E0000F101004FEA40014448BB
:10042000D0F88800C0F3074000F10100B1FBF0F004
:100430004D4900FB01F03D490968C9B201F10101D4
:10044000B0FBF1F0494908603CE03E480068C0F369
:100450000E0000F101004FEA40013548D0F8880055
:10046000C0F3074000F10100B1FBF0F0404900FB90
:1004700001F02E490968C9B201F10101B0FBF1F0A8
:100480003A4908601EE02F480068C0F30E0000F1F2
:1004900001004FEA40012648D0F88800C0F3074029
:1004A00000F10100B1FBF0F04FF4FA4100FB01F064
:1004B0001E490968C9B201F10101B0FBF1F02B49F5
:1004C000086000BF2FE01C48006810F0030006D051
:1004D000012810D0022819D0032823D100E000BF42
:1004E00012480068C0B200F101001F49B1FBF0F0F2
:1004F0001E49086016E00D480068C0B200F1010016
:100500001B49B1FBF0F0194908600BE0074800688F
:10051000C0B200F101004FF4FA41B1FBF0F0134911
:10052000086000BF00BF7047A0C10F4004C10F406A
:1005300000C00F40ACC10F400CC10F4084C00F4041
:100540008CC00F4088C00F4080C00F40A4C00F4037
:10055000ACC00F40A8C00F40A0C00F40DE872804E9
:10056000C4C00F40C8C10F4000093D00000000108A
:10057000001BB70000BF4C4AD26902F00402042AF3
:10058000F9D14A4A484B1A631A46506391632122B3
:100590005A607047012046490860122045490860AA
:1005A00014204860002042490860704701204049FB
:1005B0000860002048608860C860082008614861C1
:1005C0000020086070473C48006840F400503B49F8
:1005D000C1F8C4003A480068C1F8A8013948006869
:1005E00040F00500374908604FF001002E490860CF
:1005F0004FF00000486088604FF001000861324809
:1006000048614FF00000086070472B4800682B4994
:10061000C1F8C4002B48006840F050002949086028
:1006200027480068264908604FF08300274908736F
:100630004FF0000008714FF0750008704FF0100087
:10064000234908704FF00300204908737047FFF7F3
:1006500057FEFFF7DAFFFFF7B6FFFFF7A7FFFFF739
:1006600099FF1AE000BF1948007D10F0010FFAD081
:10067000164800781749087008460078302804D1D9
:1006800030212120FFF776FF07E01248007831285B
:1006900003D131212120FFF76DFFE3E7002100E0C6
:1006A000491C8142FCD37047004004400000018097
:1006B00000C0034000800340C4C00F4000C00F4092
:1006C000A8C10F4000C0024007001C0000C000404D
:1006D00028C000400400001000093D000000000098
:04000005000000CD2A
:00000001FF
