:020000040000FA
:10000000700200106101000065010000670100003E
:10001000690100006B0100006D010000000000009C
:100020000000000000000000000000006F01000060
:100030007101000000000000730100007501000064
:1000400077010000770100007701000077010000D0
:1000500077010000770100007701000077010000C0
:1000600077010000770100007701000077010000B0
:1000700077010000770100007701000077010000A0
:100080007701000077010000770100007701000090
:100090007701000077010000770100007701000080
:1000A0007701000077010000770100007701000070
:1000B0007701000077010000770100007701000060
:1000C0007701000000F002F800F03CF80AA090E888
:1000D000000C82448344AAF10107DA4501D100F003
:1000E00031F8AFF2090EBAE80F0013F0010F18BF94
:1000F000FB1A43F001031847BC010000DC010000BB
:10010000103A24BF78C878C1FAD8520724BF30C843
:1001100030C144BF04680C60704700000023002415
:1001200000250026103A28BF78C1FBD8520728BF07
:1001300030C148BF0B6070471FB5AFF300801FBDD3
:1001400010B510BD00F07BF81146FFF7F5FF00F089
:1001500021F800F099F8FFF7F3FF00F09FF8000096
:1001600008480047FEE7FEE7FEE7FEE7FEE7FEE79A
:10017000FEE7FEE7FEE7FEE703480449024A044BB8
:1001800070470000C50000007000001070020010F1
:100190007000001010B500F0B3F849F208001F49D4
:1001A00008604FF040401E49C860EC201D4981F8AE
:1001B000300013201B49203108701B481B49086080
:1001C0002AE000BF1948006B00F020002028F9D178
:1001D0001648406A4FF6F071084015490860084615
:1001E00000684FF6F071081A12490860002404E014
:1001F00003200C4934310870641C0D4800688442A7
:10020000F6D3002404E00220064934310870641C4F
:10021000084800688442F6D3D3E70000C4C00F400A
:1002200000C0024000C0092020022100004003401D
:1002300004000010080000107047704770477546B2
:1002400000F028F8AE4605006946534620F0070046
:10025000854618B020B5FFF78FFFBDE820404FF06E
:1002600000064FF000074FF000084FF0000B21F0A0
:100270000701AC46ACE8C009ACE8C009ACE8C0096D
:10028000ACE8C0098D4670470446AFF300802046B5
:10029000FFF761FF004870470C00001003494FF062
:1002A0001800ABBE704700000900000026000200E5
:1002B0007047000034050000000000100C00000032
:1002C00000010000400500000C0000106402000066
:1002D0001C01000000000000000000000000000001
:1002E000000000000000000000000000000000000E
:1002F000000000000000000000000000FFFFFFFF02
:1003000000202021854A116000BF8449096811F04E
:10031000400FFAD00321814A9C3A11600021804AA3
:10032000C2F8A8117D4A0C32116001217B4A943A2F
:1003300011600B217A4A843211600121121F116071
:10034000AA21774A8C3211605521754AC2F88C1067
:10035000724994390968022907D000BF7049883171
:10036000096811F0806FF9D004E0002000E0401C23
:100370006428FCD903216A4A80321160AA21684AA4
:10038000C2F88C105521664A8C3211602321644AD0
:10039000A43211600121121F1160AA21604AAC32FF
:1003A00011605521116000BF5D49A831096811F441
:1003B000806FF9D003215A4AA0321160AA21584A0D
:1003C000C2F8AC105521564AAC3211605549544A16
:1003D000C43211600021514A2832116043F23A01BF
:1003E0004F4A116070474E4888300068C0F3016082
:1003F000032860D149489438006810F0030006D003
:10040000012820D0022839D0032853D100E000BFB2
:10041000434888300068C0F30E00401C410040484B
:10042000D0F88800C0F30740401CB1FBF0F13E4813
:1004300041433A489C380068C0B2401CB1FBF0F020
:100440003A49086036E0364888300068C0F30E004C
:10045000401C41003248D0F88800C0F30740401CDF
:10046000B1FBF0F1324841432C489C380068C0B2DF
:10047000401CB1FBF0F02D4908601BE02848883093
:100480000068C0F30E00401C41002548D0F88800E9
:10049000C0F30740401CB1FBF0F14FF4FA40414378
:1004A0001E489C380068C0B2401CB1FBF0F01F49E8
:1004B000086000BF30E019489438006810F003006D
:1004C00006D0012810D0022819D0032823D100E03B
:1004D00000BF12489C380068C0B2401C1249B1FBF2
:1004E000F0F01249086016E00C489C380068C0B271
:1004F000401C0F49B1FBF0F00C4908600BE00748C5
:100500009C380068C0B2401C4FF4FA41B1FBF0F0D7
:100510000649086000BF00BF70470000A0C10F403F
:1005200000C00F40DE87280400093D0000000010D5
:10053000001BB70000093D000000000000000000A3
:040000050000016195
:00000001FF
